:100E070075A15575A1AAE5B954F84406F5B9E4F5F5
:020E1700A12216
:100DBF00EF4E601505A105A105A105A105A105A18E
:0A0DCF0005A1EF1F70EA1E80E72265
:100DD900AD07AC06ED4C600E7FE87E03120DBFED4A
:070DE9001D70F11C80EE22D9
:100BE600C29FD29EC29DC2CDC2CC438780E4753BD4
:100BF600ADF53AF539F5387B0AFAF9F8AF3BAE3A76
:100C0600AD39AC38120901AF038F3CAF3BAE3AADFC
:100C160039AC38E47B0AFAF9F81209018F3B8E3AAF
:100C26008D398C38C3E53C9405748094804011EF6F
:100C36002401F53BE43EF53AE43DF539E43CF5386C
:100C4600E589540F4420F58943C9A0E53BF404F532
:070C56008DD28ED299D29CD1
:010C5D002274
:100DF00075A15575A1AAEF600543B101800353B1F8
:070E0000FEE4F5A1F5FF225D
:03003B008FFF2212
:100A4D0053455420434F4E4649472E0A0057616B7C
:100A5D00650A00456E61626C652052656D6F746547
:100A6D002057616B6575702E0A00457272457030A6
:100A7D00526571436F64653D253032580A004572E9
:100A8D0072456E6470496E740A00556E6B6E6F77A9
:100A9D006E496E740A002563004B4D2044657669DE
:100AAD006365207374617274202E2E2E0A0012015C
:100ABD00100100000040861AE1E60001010200016C
:100ACD00040309040E0353006900720069007500E8
:100ADD0073000C0343004800350035003700050155
:100AED000906A10105071904290E15002501950B0D
:100AFD0075018102950575018101C005010902A1EC
:100B0D00010501093009311581257F95027508818F
:100B1D0006C009023B00020100A0320904000001D9
:100B2D0003010100092111010001221D00070581AA
:100B3D000302000A0904010001030102000921104A
:0D0B4D000100012217000705820302000AC3
:090E1900011B00011C000118007E
:0A000300751B01FB7A0079167D02DF
:10000D008D39AF397E00EBC0E0EAC0E0E9C0E0C851
:10001D007440C8CC7400CCCD7401CDD0E0F9D0E0E3
:0E002D00FAD0E0FB12089F8539D353D2FC2293
:100D6A008D39AF397E00EBC0E0EAC0E0E9C0E0C8E7
:100D7A007444C8CC7400CCCD7401CDD0E0F9D0E075
:0E0D8A00FAD0E0FB12089F8539D553D4FC2225
:0300430002004672
:0D004600C0E0C0F0C083C082C0D075D008FB
:1000530020D903020430E5D954BF700302011124EF
:10006300E0604314602C24A1700302011124E060BA
:100073003514601E1460072480600302011775D5D0
:100083000063D440751C00E5D454FC4402F5D4024B
:10009300042C75D30063D240751B00E5D254FC4495
:1000A30002F5D202042CE51024FB604F147056C3F2
:1000B300E5129440E511940040047F408002AF12A2
:1000C3008F237E00C87400C8CC7400CCCD7401CDDE
:1000D300AB13AA14A91512089FAF237E00C3E51220
:1000E3009FF512E5119EF511EF2515F515EE351463
:1000F300F5148523DD63DC4002042CE5E3548045DD
:1001030012F5E3800375DD0075DC0202042C63DC69
:100113008002042CE5D954B064B060030204237553
:10012300DCC0900007E0FDFE900006E07A002400AA
:10013300F512EA3EF511752300900001E0F510ED8C
:10014300700BD3E512947FE51194004006751100FE
:1001530075127F752300900000E054606018E5106D
:100163001424FD40030203FB24FB24FD400302038C
:10017300FB80000203B3E510B40B0040030203E964
:1001830090018AF82828730203CD0202DA0203E9F8
:1001930002032F0203E902029B0201AB0203E902FD
:1001A30002A70202BE0203B8900003E024FE601C13
:1001B30014602724E1605A2421600302024175136D
:1001C300FF75140A7515BB75231280757513FF75BA
:1001D300140B75151F75233B8067900002E06023A5
:1001E30024FE60110470577513FF75140A7515D139
:1001F30075230E804C7513FF75140A7515DF75236F
:100203000C803E7513FF75140A7515CD7523048094
:1002130030900004E0FF7E00700E7513FF75140A22
:100223007515EB75231D8019EF64014E700E751360
:10023300FF75140B7515087523178005800075234A
:10024300FFAF237E00D3E5129FE5119E40048E117C
:100253008F12C3E5129440E511940040047F40805F
:1002630002AF128F237E00C87400C8CC7400CCCDBB
:100273007401CDAB13AA14A91512089FAF237E00F6
:10028300C3E5129FF512E5119EF511EF2515F5153E
:10029300EE3514F5140203FB900002E0751100F52E
:1002A300120203FB900000E519F0C3E5129401E587
:1002B30011940050030203FB0203C8900002E0F50F
:1002C30019E51970030203FB7BFF7A0A794D1204C7
:1002D300D5751F010203FB900000E0541FFF7E0051
:1002E30064027036900004E01460261460122481C6
:1002F3006014147022E5D454BC4402F5D40203FB09
:1003030053D4730203FBE5D254BC4402F5D2020377
:10031300FB53D2730203FB0203B3EF4E700BF518CA
:100323007BFF7A0A795A0203F80203B3900000E0D4
:10033300541F7027900003E0FE900002E0FDED647F
:10034300014E7015900B269330E50C7518017BFF59
:100353007A0A79600203F880578055900000E054D0
:100363001F6402704B900003E0FE900002E0FDED7D
:100373004E703B900005E0FE900004E0FDEDFFEEC3
:10038300702AEF24FE60112481601714701EE5D4D7
:1003930054BF4403F5D48060E5D4547F440CF5D4B2
:1003A3008056E5D254BF4403F5D2804C80028000CE
:1003B3007523FF8043900000E4F0C3E5129401E548
:1003C3001194004033752301802E900000E4F0A3C4
:1003D300F0C3E5129402E5119400400575230280F1
:1003E3001785122380127523FF7BFF7A0A797775AD
:1003F3003C0085103D1204D5AF237E00EFF4700856
:100403007510FF75DCCF8021D3EF9440EE648094A8
:100413008050058523DD800375DD0075DCC0800910
:100423007BFF7A0A798B1204D5C2D9803230D81770
:1004330075DC0275D20275D40275E300C2DAC2D943
:10044300751F00C2D8801830DA09C2DAE5DA30E263
:100453000E800C7BFF7A0A79971204D575D8FF308A
:05046300D9030200595D
:0B046800D0D0D082D083D0F0D0E032A2
:100CCB00C2EAE4F5E2F5D3F5D59021E0E054F3F078
:100CDB00E054EF4440F0A3E054FE4404F0CE740023
:100CEB00CECF7400CF8EED8FECCE7400CECF744090
:100CFB00CF8EEF8FEECE7400CECF7444CF8EE58FB8
:100D0B00E4E4F5E353D1F753D1FB53E2BF43E228BD
:0D0D1B0043D10175D8FFA37407F0D2EA227E
:100C5E00120E238F387BFF7A0A79A385383C120453
:100C6E00D5E53824BF602E14603E24F060102406B3
:100C7E00704A751D02E4F51EE51C70FC800AE4F551
:100C8E001D751E02E51C70FC751C01FB7A00791D9A
:100C9E007D02020D6A751601E51B70FC120003E45D
:100CAE00F516E51B70FC8011751602E51B70FC1223
:0C0CBE000003E4F516E51B70FC120003B7
:010CCA002207
:100D2800120E077F147E00120DD9120BE67BFF7A94
:100D38000A79A61204D5120CCBD2AF7E007F027DB1
:100D4800007B007A0079161209937E007F027D00ED
:100D58007B007A00791D120993E51F60FC120C5E76
:020D680080F712
:03000000020B5A96
:0C0B5A00787FE4F6D8FD75814C020BA1F9
:1007CF00E709F608DFFA8046E709F208DFFA803E0C
:1007DF0088828C83E709F0A3DFFA8032E309F608F9
:1007EF00DFFA8078E309F208DFFA807088828C8361
:1007FF00E309F0A3DFFA806489828A83E0A3F60815
:10080F00DFFA805889828A83E0A3F208DFFA804CEE
:10081F0080D280FA80C680D4806980F280338010C5
:10082F0080A680EA809A80A880DA80E280CA80332E
:10083F0089828A83ECFAE493A3C8C582C8CCC583A6
:10084F00CCF0A3C8C582C8CCC583CCDFE9DEE78076
:10085F000D89828A83E493A3F608DFF9ECFAA9F0F5
:10086F00EDFB2289828A83ECFAE0A3C8C582C8CC4B
:10087F00C583CCF0A3C8C582C8CCC583CCDFEADE64
:10088F00E880DB89828A83E493A3F208DFF980CCC6
:10089F0088F0EF60010E4E60C388F0ED2402B404BF
:1008AF000050B9F582EB2402B4040050AF23234566
:0608BF00822390081F7364
:1008C50075F008758200EF2FFFEE33FECD33CDCCEA
:1008D50033CCC58233C5829BED9AEC99E58298406D
:1008E5000CF582EE9BFEED9AFDEC99FC0FD5F0D64A
:1008F500E4CEFBE4CDFAE4CCF9A88222B800C1B974
:100905000059BA002DEC8BF084CFCECDFCE5F0CBB1
:10091500F97818EF2FFFEE33FEED33FDEC33FCEBEA
:1009250033FB10D703994004EB99FB0FD8E5E4F9A5
:10093500FA227818EF2FFFEE33FEED33FDEC33FC92
:10094500C933C910D7059BE99A4007EC9BFCE99A86
:10095500F90FD8E0E4C9FAE4CCFB2275F010EF2FCB
:10096500FFEE33FEED33FDCC33CCC833C810D707CB
:100975009BEC9AE899400AED9BFDEC9AFCE899F806
:0E0985000FD5F0DAE4CDFBE4CCFAE4C8F92299
:10047300E548243CF8E60548227839301002783CF8
:10048300E475F001120A170209BF2009EB7F2ED28F
:10049300098018EF540F2490D43440D4FF300D0B4F
:1004A300EF24BFB41A0050032461FFE5496002152D
:1004B30049054CE54C7002054B30100D7839E47555
:1004C300F001120A17EF020A05020D987403D21005
:1004D3008003E4C210F5488B398A3A893BE4F54935
:1004E300F54BF54CE54960077F201204AE80F575A6
:1004F3004AFFC20AC209C20BC20CC20EC20FC2110A
:1005030012047CFF700D3010057F001204BFAF4C46
:10051300AE4B22B4255FC2D5C20D12047CFF24D09A
:10052300B40A00501A75F00A784930D50508B6FFA9
:100533000106C6A426F620D5047002D20C80D92465
:10054300CFB41A00EF5004C2E5D20D0206BFD20A9F
:1005530080C6D20980C0D20B80BCD2D580BAD20E5D
:1005630080B47F201204AE200B077401B54900400C
:10057300F1120473FF1204AE0204E7D211D20F800A
:1005830095120473FB120473FA120473F94A4B7045
:100593000679907A077BFF200B2EE549602A7E00BF
:1005A3008E827583001209D860060EEE654A70F0DC
:1005B300C2D5EBC0E0EAC0E0E9C0E0EE120706D026
:1005C300E0F9D0E0FAD0E0FB1209BFFF60AAEBC06C
:1005D300E0EAC0E0E9C0E01204AED0E02401F9D0C3
:1005E300E03400FAD0E0FBE54A0460DCD54AD98068
:1005F300877BFF7A077902D20B809C79108002797E
:1006030008C20FC2118008D2D5790A8004790AC2C0
:10061300D5E54A047002F54AE4FAFDFEFF120473BD
:10062300FC7B08200A13120473FD7B1030090A12A5
:100633000473FE120473FF7B20EC3382D592D550F2
:1006430013C3E43009069FFFE49EFEE4200A039DE2
:10065300FDE49CFCE4CBF8C20AEC700CCFCECDCC0D
:10066300E824F8F870F38017C3EF33FFEE33FEEDA1
:1006730033FDEC33FCEB33FB994002FB0FD8E9EB82
:10068300300A05F8D0E0C448B20AC0E00AEC4D4E87
:100693004F78207B0070C2EAB54A0040BCC0E0122C
:1006A3000708D0F0D0E0200A04C4C0E0C4B20AC0F6
:1006B300F0120497D0F0D5F0EB0204E7120A2705F5
:1006C300845305FE5805554C05514206024F060A50
:0F06D30044060A49056A4306105505F44605F426
:1006E2004505F44707B05005592D055D2E05802BB1
:1006F200056123057E2007992A051948000005781F
:100702003F3F3F00790AA2D5200C14300E09B910E0
:10071200020404B9080104A2D5200F0250010420EA
:100722000B68920BB549005034C0E07F20300C19A1
:100732007F30A20B720F720E500F12075FC20BC2F4
:100742000FC20EC2117F30800F300E03E9C0E012DB
:1007520004AE300E03D0E0F9D0E0B549CC300E172C
:100762007F30B9100C1204AE7F58300D077F7880AD
:1007720003B908031204AE300B057F2D0204AE7FCD
:10078200202011F87F2B200FF322920B80CF286EAE
:10079200756C6C2900D20A120473300AF8C20A7806
:1007A2004930D50108F60205192D50434958120463
:1007B200732403B405004001E49007AB9312049F35
:0D07C200743A12049FD20C7549040205FE22
:0A0E23003098FDAF99C2987E0022BE
:10099300EF4E6012EF60010EEDBB010B89828A837B
:1009A300F0A3DFFCDEFA2289F05007F709DFFCA988
:0C09B300F022BBFEFCF309DFFCA9F022DF
:100B6600020D28E493A3F8E493A34003F68001F270
:100B760008DFF48029E493A3F85407240CC8C33390
:100B8600C4540F4420C8834004F456800146F6DF5F
:100B9600E4800B0102040810204080900E19E47EC8
:100BA600019360BCA3FF543F30E509541FFEE49354
:100BB600A360010ECF54C025E060A840B8E493A31B
:100BC600FAE493A3F8E493A3C8C582C8CAC583CA46
:100BD600F0A3C8C582C8CAC583CADFE9DEE780BEFE
:010E220000CF
:1009BF00BB010689828A83E0225002E722BBFE0236
:0909CF00E32289828A83E4932269
:1009D800BB010CE58229F582E5833AF583E02250D4
:1009E80006E92582F8E622BBFE06E92582F8E2221E
:0D09F800E58229F582E5833AF583E4932238
:100A0500BB010689828A83F0225002F722BBFE01D0
:020A1500F322CA
:100A1700FAE6FB0808E6F925F0F618E6CA3AF622E0
:100A2700D083D082F8E4937012740193700DA3A35E
:100A370093F8740193F5828883E473740293686072
:060A4700EFA3A3A380DF72
:100D9800EFB40A07740D120DA3740A309811A899BC
:100DA800B8130CC2983098FDA899C298B811F630BB
:070DB80099FDC299F5992293
:00000001FF
