:1000300075A15575A1AAE5B954F84407F5B9E4F5D9
:02004000A122FB
:10001600EF4E601505A105A105A105A105A105A144
:0A00260005A1EF1F70EA1E80E7221B
:10091D00AD07AC06ED4C600E7FE87E03120016EDC0
:07092D001D70F11C80EE2299
:05069C008F21C9EDC92A
:1006A100E52114601314601614601914601C2404ED
:1006B100701CACC4AEC58016AC92AE938010AC94E5
:1006C100AE95800AAC96AE978004ACC2AEC3CFEBB8
:1006D100CFEF14601114601614601D24037020E91B
:1006E100F4CC5CCC800DE9F4CC5CCCE9800EE9CC97
:1006F1004CCCF4CE5ECE8007E9CC4CCCCE4ECEE5D0
:10070100211460121460141460161460182404700B
:10071100188CC48EC5228C928E93228C948E952235
:090721008C968E97228CC28EC3C7
:01072A0022AC
:10055B008E218F22E522547F7006E52154F0601620
:10056B0075A15575A1AACFEDCFEF6401700543B20C
:10057B0080800353B27FE52230E702D288E5213039
:10058B00E002D28A75A15575A1AACFEBCFEF64011A
:10059B00702FE522547F42B2E52230E702D2A8E564
:1005AB002130E002D2AAE52154F06010E521F522BA
:1005BB007521009021EAE0FFEF4522F0D2EED2AF99
:1005CB0022E522547FF452B2E52230E702C2A8E5BD
:1005DB002130E002C2AAE52154F06013E521F52297
:1005EB007521009021EAE0FFE522F4FEEF4EF0C208
:0205FB00EE22EE
:1005FD001201100100000040861AE1E6000101021F
:10060D000001040309040E03530069007200690020
:10061D00750073000C035300500043006F006E0013
:10062D0005010906A10105071904290E150025016B
:10063D00950B75018102950575018101C0050109B3
:10064D0002A1010501093009311581257F9502753A
:10065D00088106C009023B00020100A096090400B2
:10066D00000103010100092111010001221D0007F4
:10067D0005810302000A09040100010301020009BA
:0F068D0021100100012217000705820302000A55
:0D093400021D0000011B00011C0001180045
:1008C1008D21AF217E00EBC0E0EAC0E0E9C0E0C8C5
:1008D1007440C8CC7400CCCD7401CDD0E0F9D0E027
:0E08E100FAD0E0FB1205098521D353D2FC2288
:1008EF008D21AF217E00EBC0E0EAC0E0E9C0E0C897
:1008FF007444C8CC7400CCCD7401CDD0E0F9D0E0F5
:0E090F00FAD0E0FB1205098521D553D4FC2255
:0300430002004672
:0D004600C0E0C0F0C083C082C0D075D008FB
:1000530020D9030203FFE5D954BF70030201112421
:10006300E0604314602C24A1700302011124E060BA
:100073003514601E1460072480600302011775D5D0
:100083000063D440751C00E5D454FC4402F5D4024B
:1000930003FB75D30063D240751B00E5D254FC44C7
:1000A30002F5D20203FBE51024FB604F147056C324
:1000B300E5129440E511940040047F408002AF12A2
:1000C3008F207E00C87400C8CC7400CCCD7401CDE1
:1000D300AB13AA14A915120509AF207E00C3E512BC
:1000E3009FF512E5119EF511EF2515F515EE351463
:1000F300F5148520DD63DC400203FBE5E354804512
:1001030012F5E3800375DD0075DC020203FB63DC9B
:10011300800203FBE5D954B064B060030203FB75AE
:10012300DCC0900007E0FDFE900006E07A002400AA
:10013300F512EA3EF511752000900001E0F510ED8F
:10014300700BD3E512947FE51194004006751100FE
:1001530075127F752000900000E054606018E51070
:100163001424FD40030203D524FB24FD40030203B2
:10017300D580000203D2E510B40B0040030203D282
:1001830090018AF82828730203B60202D10203D22F
:100193000203200203D202029B0201AB0203D2023A
:1001A30002A70202BE0203A1900003E024FE601C2A
:1001B30014602724E1605A2421600302024175136D
:1001C300FF7514057515FD75201280757513FF7580
:1001D300140675156175203B8067900002E060236B
:1001E30024FE60110470577513FF751406751513FB
:1001F30075200E804C7513FF751406751521752037
:100203000C803E7513FF75140675150F7520048059
:1002130030900004E0FF7E00700E7513FF75140626
:1002230075152D75201D8019EF64014E700E751321
:10023300FF75140675154A75201780058000752013
:10024300FFAF207E00D3E5129FE5119E40048E117F
:100253008F12C3E5129440E511940040047F40805F
:1002630002AF128F207E00C87400C8CC7400CCCDBE
:100273007401CDAB13AA14A915120509AF207E0092
:10028300C3E5129FF512E5119EF511EF2515F5153E
:10029300EE3514F5140203D5900002E0751100F554
:1002A300120203D5900000E519F0C3E5129401E5AD
:1002B30011940050030203D50203B1900002E0F54C
:1002C30019E51970030203D5751F010203D59000C8
:1002D30000E0541FFF7E0064027036900004E014B7
:1002E300602614601224816014147022E5D454BC77
:1002F3004402F5D40203D553D4730203D5E5D25493
:10030300BC4402F5D20203D553D2730203D50203D0
:10031300D2EF4E7005F5180203D50203D290000008
:10032300E0541FFD7C007023900003E0FE90000268
:10033300E0FBEB64014E70109006689330E50675A0
:1003430018010203D50203D20203D2ED64024C70FA
:100353004B900003E0FE900002E0FDED4E703B90F9
:100363000005E0FE900004E0FDEDFFEE702AEF24AF
:10037300FE60112481601714701EE5D454BF44033A
:10038300F5D4804EE5D4547F440CF5D48044E5D2B3
:1003930054BF4403F5D2803A8035803380319000D6
:1003A30000E4F0C3E5129401E511940040247520A4
:1003B30001801F900000E4F0A3F0C3E5129402E56E
:1003C3001194004005752002800885122080037572
:1003D30020FFAF207E00EFF470087510FF75DCCFAF
:1003E3008016D3EF9440EE6480948050058520DD21
:1003F300800375DD0075DCC0C2D9802930D817753C
:10040300DC0275D20275D40275E300C2DAC2D97573
:100413001F00C2D8800F30DA09C2DAE5DA30E2050C
:0B042300800375D8FF30D90302005998
:0B042E00D0D0D082D083D0F0D0E032DC
:10082E00C2EAE4F5E2F5D3F5D59021E0E054F3F019
:10083E00E054EF4440F0A3E054FE4404F0CE7400C4
:10084E00CECF7400CF8EED8FECCE7400CECF744031
:10085E00CF8EEF8FEECE7400CECF7444CF8EE58F59
:10086E00E4E4F5E353D1F753D1FB53E2BF43E2285F
:0D087E0043D10175D8FFA37407F0D2EA2220
:10088B00858016859017E51B70FC751B01FB7A00A4
:10089B0079167D021208C1E5167004E5176016E59E
:1008AB001C70FC751C01FB7A00791D7D021208EF90
:0608BB00E4F51DF51E220C
:03000300020006F2
:0B00060030B402051D20B402151D32AD
:030013000209429D
:0B09420030B502051E20B502151E3264
:1007B7001200307F147E0012091DE4FB7DFFFF123B
:1007C700069CE4FB7D077F0112069CE4FB7D047F0A
:1007D7000312069CE4FB7D087F0312069CE4FB7D65
:1007E700107F0312069CE4FB7D207F0312069C7B8F
:1007F700017D017F807E0112055B12082E75E904D9
:100807007E007F027D007B007A00791612052F7E1D
:10081700007F027D007B007A00791D12052FE51FFE
:0708270060FC12088B80F752
:0300000002072BC9
:0C072B00787FE4F6D8FD75812202077289
:10043900E709F608DFFA8046E709F208DFFA803EA5
:1004490088828C83E709F0A3DFFA8032E309F60892
:10045900DFFA8078E309F208DFFA807088828C83FA
:10046900E309F0A3DFFA806489828A83E0A3F608AE
:10047900DFFA805889828A83E0A3F208DFFA804C88
:1004890080D280FA80C680D4806980F2803380105F
:1004990080A680EA809A80A880DA80E280CA8033C8
:1004A90089828A83ECFAE493A3C8C582C8CCC58340
:1004B900CCF0A3C8C582C8CCC583CCDFE9DEE78010
:1004C9000D89828A83E493A3F608DFF9ECFAA9F08F
:1004D900EDFB2289828A83ECFAE0A3C8C582C8CCE5
:1004E900C583CCF0A3C8C582C8CCC583CCDFEADEFE
:1004F900E880DB89828A83E493A3F208DFF980CC60
:1005090088F0EF60010E4E60C388F0ED2402B40458
:100519000050B9F582EB2402B4040050AF232345FF
:0605290082239004897397
:10052F00EF4E6012EF60010EEDBB010B89828A83E3
:10053F00F0A3DFFCDEFA2289F05007F709DFFCA9F0
:0C054F00F022BBFEFCF309DFFCA9F02247
:100737000207B7E493A3F8E493A34003F68001F21A
:1007470008DFF48029E493A3F85407240CC8C333C3
:10075700C4540F4420C8834004F456800146F6DF92
:10076700E4800B0102040810204080900934E47EE5
:10077700019360BCA3FF543F30E509541FFEE49387
:10078700A360010ECF54C025E060A840B8E493A34E
:10079700FAE493A3F8E493A3C8C582C8CAC583CA79
:1007A700F0A3C8C582C8CAC583CADFE9DEE780BE31
:0109410000B5
:00000001FF
